:030000000205BF37
:0C05BF00787FE4F6D8FD75811402060672
:10022A000200020D021902260232023F024B025755
:10023A0002640270027C0288029402A002AC02B834
:10024A0002C402CF02DA02E602F102FC030703113A
:10025A00031C03260330033A0344034E0357036087
:10026A0003690372037B0383038B0393039A03A239
:10027A0003A903B003B603BD03C303C803CE03D364
:10028A0003D803DD03E103E503E903EC03F003F319
:10029A0003F503F703F903FB03FD03FE03FE03FF64
:1002AA0003FF03FF03FE03FE03FD03FB03F903F74A
:1002BA0003F503F303F003EC03E903E503E103DDCC
:1002CA0003D803D303CE03C803C303BD03B603B0E5
:1002DA0003A903A2039A0393038B0383037B037289
:1002EA00036903600357034E0344033A03300326AA
:1002FA00031C0311030702FC02F102E602DA02CF31
:10030A0002C402B802AC02A002940288027C027003
:10031A0002640257024B023F023202260219020D00
:10032A00020001F301E701DA01CE01C101B501A919
:10033A00019C019001840178016C0160015401481B
:10034A00013C01310126011A010F010400F900EFF5
:10035A0000E400DA00D000C600BC00B200A900A088
:10036A000097008E0085007D0075006D0066005EB6
:10037A0000570050004A0043003D00380032002D6B
:10038A0000280023001F001B001700140010000D96
:10039A00000B00090007000500030002000200012B
:1003AA000001000100020002000300050007000925
:1003BA00000B000D001000140017001B001F002383
:1003CA000028002D00320038003D0043004A00504A
:1003DA000057005E0066006D0075007D0085008E86
:1003EA00009700A000A900B200BC00C600D000DA45
:1003FA0000E400EF00F90104010F011A012601319E
:10040A00013C014801540160016C017801840190AA
:10041A00019C01A901B501C101CE01DA01E701F38D
:0406E100021303E815
:1006C300D3EF9400EE940040147D7C7C00ED1D700C
:0D06D300011CED4C70F7EF1F70E61E80E378
:0106E00022F7
:10064B00D3EF94E8EE940340047E037FE8EF780643
:10065B00C333CE33CED8F9FFC2A1D2A0C2A0E4FDE2
:10066B00EE3392A2D2A1EF25E0FFEE33FEC2A10D35
:07067B00BD0CEDC2A1D2A0ED
:010682002255
:1006A400AB07E42BF582E43470F583E4F07F01FEBC
:0F06B4001206C3E42BF582E43470F583E0FF22D5
:100683002090037F01222091037F02222092037F87
:1006930003222093037F04222094037F05227F00FB
:0106A3002234
:100003007590FFE4FF1206A47E007C077D9E120418
:100013002A7C007DFF12043CEF2432F512E43EF506
:10002300111206838F08E4F509F50AC3E50A951250
:10003300E509951150CDE50814601F14603B146069
:100043006514700302013F147003020197240560D5
:1000530003020218E4FFFE020215E511C313FEE5D5
:100063001213FFC3E50A9FE5099E5006AE13AF14B2
:1000730080047E007F00020215AE13AF14AB07AA03
:1000830006E4F9F8AE09AF0AFCFD120491C006C0FC
:1000930007AE11AF12AB07AA06E4F9F8D007D006F2
:0600A30012051C0202150B
:1000A900E512AE117802CEC313CE13D8F9F5108E2E
:1000B9000FC3E50A9510E509950F502DAE13AF143E
:1000C900AB07AA06E4F9F8AE09AF0AFCFD120491E0
:1000D900C006C007AE0FAF10AB07AA06E4F9F8D007
:1000E90007D00612051C020215AE0FAF107C007D69
:1000F9000312042AC3E50A9FE5099E5007AF14AE0F
:1001090013020215C3E512950AFFE5119509AB071C
:10011900FAE4F9F8AE13AF14FCFD120491C006C05D
:1001290007AE0FAF10AB07AA06E4F9F8D007D0065F
:0601390012051C02021574
:10013F00E511C313F50FE51213F510C3E50A95107A
:10014F00E509950F5011AE13AF14AB07AA06E4F9EA
:10015F00F8AE09AF0A8014C3E512950AFFE51195B1
:10016F0009AB07FAE4F9F8AE13AF14FCFD120491D2
:10017F00C006C007AE0FAF10AB07AA06E4F9F8D060
:08018F0007D00612051C807E5A
:10019700AE09AF0AE4FCFDFB7A01F9F8120491C03D
:1001A70006C007AE11AF12AB07AA06E4F9F8D007ED
:1001B700D00612051C8F0E8E0D8D0C8C0BE4FF7E66
:1001C70001FDFCAB0EAA0DA90CA80BC31205AE408E
:1001D7000AE4750EFFF50DF50CF50B75F002E50E4B
:1001E700A4242AF582E5F03402F583E493FE740132
:1001F70093FBAA06E4F9F8AE13AF14FCFD120491C1
:10020700E47BE87A03F9F812051C8E0F8F101206AB
:010217004B9B
:100218007F017E001206C3050AE50A70020509027D
:02022800002EA6
:1005CB00020003E493A3F8E493A34003F68001F243
:1005DB0008DFF48029E493A3F85407240CC8C33331
:1005EB00C4540F4420C8834004F456800146F6DF00
:1005FB00E4800B01020408102040809006E1E47EA9
:10060B00019360BCA3FF543F30E509541FFEE493F4
:10061B00A360010ECF54C025E060A840B8E493A3BB
:10062B00FAE493A3F8E493A3C8C582C8CAC583CAE6
:10063B00F0A3C8C582C8CAC583CADFE9DEE780BE9E
:0106E5000014
:10042A00EF8DF0A4A8F0CF8CF0A428CE8DF0A42EE6
:02043A00FE22A0
:10043C00BC000BBE0029EF8DF084FFADF022E4CCA4
:10044C00F875F008EF2FFFEE33FEEC33FCEE9DEC6D
:10045C00984005FCEE9DFE0FD5F0E9E4CEFD22EDB3
:10046C00F8F5F0EE8420D21CFEADF075F008EF2FFD
:10047C00FFED33FD4007985006D5F0F222C398FDEE
:05048C000FD5F0EA228B
:10049100E88FF0A4CC8BF0A42CFCE98EF0A42CFC0A
:1004A1008AF0EDA42CFCEA8EF0A4CDA8F08BF0A488
:1004B1002DCC3825F0FDE98FF0A42CCD35F0FCEBE7
:1004C1008EF0A4FEA9F0EB8FF0A4CFC5F02ECD39AC
:0F04D100FEE43CFCEAA42DCE35F0FDE43CFC2219
:1004E00075F008758200EF2FFFEE33FECD33CDCCD3
:1004F00033CCC58233C5829BED9AEC99E582984056
:100500000CF582EE9BFEED9AFDEC99FC0FD5F0D632
:10051000E4CEFBE4CDFAE4CCF9A88222B800C1B95C
:100520000059BA002DEC8BF084CFCECDFCE5F0CB9A
:10053000F97818EF2FFFEE33FEED33FDEC33FCEBD3
:1005400033FB10D703994004EB99FB0FD8E5E4F98E
:10055000FA227818EF2FFFEE33FEED33FDEC33FC7B
:10056000C933C910D7059BE99A4007EC9BFCE99A6F
:10057000F90FD8E0E4C9FAE4CCFB2275F010EF2FB4
:10058000FFEE33FEED33FDCC33CCC833C810D707B4
:100590009BEC9AE899400AED9BFDEC9AFCE899F8EF
:0E05A0000FD5F0DAE4CDFBE4CCFAE4C8F92282
:1005AE00EB9FF5F0EA9E42F0E99D42F0E89C45F0A3
:0105BE00221A
:00000001FF
