:030000000200A15A
:0C00A100787FE4F6D8FD758107020003AB
:10005000D3EF9400EE940040147D6E7C00ED1D7093
:0D006000011CED4C70F7EF1F70E61E80E3F1
:01006D002270
:10008B0053890F438920758DFD758BFD759850D263
:06009B008EC299C29822FA
:0800AD008F993099FDC29922E0
:10006E007F607EEA20980BEF4E6007EF1F70F51E43
:0C007E0080F2309805C298AF99227F00F4
:01008A002253
:10000300D29012008B20A0207F147E00120050207B
:10001300A0167FA51200AD12006EAB07BB0104C290
:10002300908002D29030A0FD20A1DA7F147E0012CE
:10003300005020A1D07F331200AD12006EAB07BB7E
:0D0043000104C2908002D29020A1BA80FB7F
:00000001FF
