:03000000020003F8
:0C000300787FE4F6D8FD75810802004A01
:0300D5000108A57A
:1000B70053890F438920758DFD758BFD759850D237
:0600C7008EC299C29822CE
:0800CD008F993099FDC29922C0
:10008F00D290D2911200B73098FDC298AF99EFB5C8
:10009F00080BC290D2917F011200CD80EAD290C29C
:0800AF0091E4FF1200CD80DF97
:10000F0002008FE493A3F8E493A34003F68001F278
:10001F0008DFF48029E493A3F85407240CC8C333F2
:10002F00C4540F4420C8834004F456800146F6DFC1
:10003F00E4800B01020408102040809000D5E47E7C
:10004F00019360BCA3FF543F30E509541FFEE493B6
:10005F00A360010ECF54C025E060A840B8E493A37D
:10006F00FAE493A3F8E493A3C8C582C8CAC583CAA8
:10007F00F0A3C8C582C8CAC583CADFE9DEE780BE60
:0100D8000027
:00000001FF
