:03000000020A00F1
:0C0A0000787FE4F6D8FD75812A020A47D1
:07000E00C293C291C29222CD
:100F5600D293E4FEEF30E004D2928002C292D291A4
:100F660000C29100EFC313FF0EBE08E8E4FEED30A9
:100F7600E004D2928002C292D29100C29100EDC3E7
:080F860013FD0EBE08E8C29342
:010F8E002240
:100F1A00D293E4FDEF30E004D2928002C292D291E1
:100F2A0000C29100EFC313FF0DBD08E8E4FDEEC354
:100F3A0013FE309205430680800353067FD2910048
:0B0F4A00C291000DBD08E7C293AF0686
:010F55002279
:100B8400E4FF74162FF8E6FE75F00A84C454F0FDF1
:100B9400EE75F00A84AEF0ED2EFC74162FF8A60460
:100BA4000FBF07DEE4FD7F8E120F567D807F80121B
:100BB4000F56AD167F8C120F56AD177F88120F5645
:100BC400AD187F86120F56AD197F8A120F56AD1AD3
:100BD4007F84120F56AD1B7F82120F56AD1C7F808F
:100BE400120F56E51C547FFD7F80120F567D807FC7
:040BF4008E020F5608
:100D9A007F8D120F1A8F167F89120F1A8F177F876E
:100DAA00120F1A8F187F8B120F1A8F197F85120F45
:100DBA001A8F1A7F83120F1A8F1B7F81120F1AEF55
:100DCA00547FF51CE4FF74162FF8E6FEC4540F7521
:100DDA00F00AA4FDEE540F2DFE74162FF8A6060F86
:030DEA00BF07E35D
:010DED0022E3
:08000300E4F5E7F5E3F5E42262
:1010AC00AD07AC06E4F5E275E78375E5018CE3ED7D
:0F10BC00F5E475E64675E6B900120003AFE222CF
:10115A00AB0775E78375E5028CE3EDF5E48BE27581
:09116A00E64675E6B90002000337
:10117300AD07AC0675E78375E5038CE3EDF5E47520
:09118300E64675E6B9000200031E
:100E9100434C4B2020003A00202000204F4E004FB1
:100EA10046460042656C6C20200020202020202036
:100EB10020200000020002000501020008020200D9
:100EC1000C030301000402010305020106060200EE
:0B0ED1000602000902000D03010508E5
:060B0A008F17AD17AF16B6
:100B1000ED6401601CED64036017ED64056012ED87
:100B20006407600DED64086008ED640A6003BD0CA5
:100B3000037F1F22ED6404600DED64066008ED6420
:0E0B4000096003BD0B037F1E22ED64027033BB
:100B4E00EF24D0F525E43407F524E5255403700E83
:100B5E00AE24AF25FC7D64120C82ED4C700FAE24DA
:100B6E00AF257C017D90120C82ED4C70037F1D220F
:030B7E007F1C22B7
:030B81007F1F22B1
:080FC7008F1F7D057B02E4FF92
:060FCF008F258D268B2703
:100FD5001210EAE4F528E528C3952750097F201269
:0D0FE500113F052880F0AD26AF250210EA6F
:020D3B00AE0701
:100D3D00EE25E025E024B4F582E4340EF583E4934A
:100D4D00FFEE25E025E024B5F582E4340EF583E4CD
:100D5D0093FDEE25E025E024B6F582E4340EF5830F
:100D6D00E493F524EE25E025E024B7F582E4340E76
:100D7D00F583E493FB120FCFE524B40305AF1902FD
:0C0D8D000CD774162524F8E6FF1211089C
:010D99002237
:1003DE00E4F52130B2030206B17F0F121124900E04
:1003EE00B4E493FFA3E49304FD1210EA7F0A7E00A7
:1003FE0012108C30B2FD7F0A7E0012108C20B03F9E
:10040E00E52170047F068004E52114FF8F21EF257E
:10041E00E025E024B4F582E4340EF583E493FFE5A1
:10042E002125E025E024B5F582E4340EF583E4932E
:10043E0004FD1210EA7FC87E0012108C30B0FD2031
:10044E00B140E521B406047F008004E52104FF8F4E
:10045E0021EF25E025E024B4F582E4340EF583E4A3
:10046E0093FFE52125E025E024B5F582E4340EF571
:10047E0083E49304FD1210EA7FC87E0012108C30C4
:10048E00B1FD20B203020698E52125E025E024B651
:10049E00F582E4340EF583E493F52230B4030205BD
:1004AE009BE521B4070040030205649004C0F828C0
:1004BE0028730204D50204F3020511020525020574
:1004CE0036020546020556E51670047F638004E584
:0504DE001614FF8F164B
:0E04E300AD17120B108F23E518D3952340732D
:0F04F1008019E517B401047F0C8004E51714FF90
:0F050000120B0A8F23E518D39523405885231833
:02050F00805317
:10051100120B0C8F23E518B401028004E51814FFB7
:020521008F1831
:10052300803FE519B401047F078004E51914FF8FA8
:1005330019802EE51A70047F178004E51A14FF8FC3
:100543001A801EE51B70047F3B8004E51B14FF8F9C
:100553001B800EE51C70047F3B8004E51C14FF8F99
:100563001CAF21120D3BE52125E025E024B4F582E3
:10057300E4340EF583E493FFE52125E025E024B57B
:10058300F582E4340EF583E49304FD1210EA7FC888
:100593007E0012108C30B4FD30B50302040BE5214C
:1005A300B40700400302065C9005B2F828287302E2
:1005B30005C70205E602060402061A02062B020616
:1005C3003C02064DE516B463047F008004E516047F
:0305D300FF8F1681
:0E05D600AD17120B108F23E518D39523407834
:0F05E4008019E517B40C047F018004E51704FFAC
:0F05F300120B0A8F23E518D39523405D8523183B
:0206020080581E
:10060400120B0C8F23E518B523047F018004E51831
:0406140004FF8F1838
:100618008042E519B407047F018004E51904FF8FBF
:10062800198031E51AB417047F008004E51A04FF25
:100638008F1A8020E51BB43B047F008004E51B046F
:10064800FF8F1B800FE51CB43B047F008004E51C72
:1006580004FF8F1CAF21120D3BE52125E025E02486
:10066800B4F582E4340EF583E493FFE52125E02513
:10067800E024B5F582E4340EF583E49304FD12100A
:10068800EA7FC87E0012108C30B50302040B80F894
:100698007F0C121124120B847F0A7E0012108C30FA
:0906A800B2FD7F0A7E0012108CE5
:0106B1002226
:100BF800E4FDFF1210EA7BFF7A0E7991121045AFDF
:100C08001F1211087BFF7A0E7997121045AF1D123B
:100C180011087BFF7A0E7999121045E5157BFF6064
:100C2800067A0E799C80047A0E79A0121045E4FDAC
:100C38007F011210EA7BFF7A0E79A41210457BFF20
:100C48007A0E79AB1210457D057F011210EAE5088E
:100C580075F00AA424B6F9740335F0FA7BFF021084
:010C68004546
:1006B200E4F52130B303020948120BF87F0F12113F
:1006C20024900ED0E493FFA3E493FD1210EA7F0A74
:1006D2007E0012108C30B3FD7F0A7E0012108C2037
:1006E200B03EE52170047F038004E52114FF8F21D1
:1006F200EF75F003A424D0F582E4340EF583E4937D
:10070200FFE52175F003A424D1F582E4340EF583CC
:10071200E493FD1210EA7FC87E0012108C30B0FD07
:1007220020B13FE521B403047F008004E52104FFEA
:100732008F21EF75F003A424D0F582E4340EF58303
:10074200E493FFE52175F003A424D1F582E4340E8D
:10075200F583E493FD1210EA7FC87E0012108C30FC
:10076200B1FD20B30302090430B403020831E521CC
:1007720014602014603714605B24036003020800D5
:10078200E51F70047F178004E51F14FF120FC7AF27
:100792001F8015E51D70047F3B8004E51D14FF8F4B
:1007A2001D7D08120FCBAF1D1211088051E5157087
:1007B200047F0180027F008F157B037D0DE4FF1211
:1007C2000FCFE5157BFF60067A0E799C802D7A0E9D
:1007D20079A08027E50870047F038004E50814FFF0
:1007E2008F087B087D057F01120FCFE50875F00A9F
:1007F200A424B6F9740335F0FA7BFF121045E52103
:1008020075F003A424D0F582E4340EF583E493FF5B
:10081200E52175F003A424D1F582E4340EF583E4D6
:1008220093FD1210EA7FC87E0012108C30B4FD30A6
:10083200B5030206E1E52114602114603D146061F4
:10084200240360030208CEE51FB417047F0080046E
:10085200E51F04FF120FC7AF1F801AE51DB43B044A
:100862007F008004E51D04FF8F1D7B027D08E4FFED
:10087200120FCFAF1D1211088052E51570047F01CF
:1008820080027F008F157B037D0CE4FF120FCFE502
:10089200157BFF60067A0E799C802E7A0E79A080F5
:1008A20028E508B403047F008004E50804FF8F08EC
:1008B2007B087D057F01120FCFE50875F00AA4249D
:1008C200B6F9740335F0FA7BFF121045E52175F095
:1008D20003A424D0F582E4340EF583E493FFE521EA
:1008E20075F003A424D1F582E4340EF583E493FD7C
:1008F2001210EA7FC87E0012108C30B5030206E1A6
:1009020080F87F0C1211241210CB7F0A7E00121085
:100912008C30B3FD7F0A7E0012108C7F007E201285
:1009220011737D007C20AF1F12115A7D017C20AF14
:100932001D12115A7D027C20AF1512115A7D037CC3
:0609420020AF0812115A5B
:01094800228C
:10112400C2A7C2A6C2A58F807F027E0012108CD2F5
:0B113400A57F027E0012108CC2A522D5
:10113F00D2A7C2A6C2A58F807F027E0012108CD2CA
:0B114F00A57F027E0012108CC2A522BA
:1010EA008F298D2AE5297008E52A2480FF12112408
:0E10FA00E529B40108E52A24C0FF12112422C2
:101045008B258A268927AB25AA26A927120C696034
:10105500130527E5277002052614F9120C69FF12FE
:05106500113F80E222B2
:101108008F25E52575F00A842430FF12113FE52567
:0C11180075F00A84E5F02430FF02113F5E
:1011B7007F381211247F061211247F0C1211247F0D
:0411C70001021124EC
:100EDC00323020202D20202D2020202020202020CA
:100EEC000020203A20203A202020202020202020E2
:100EFC00200053756E004D6F6E005475650057657C
:0E0F0C006400546875004672690053617400F9
:0C101D00011E0007161A0607011400004F
:10108C00E4FDFCC3ED9FEC9E5015E4FBFA0BBB009A
:0F109C00010AEB64704A70F50DBD00010C80E491
:0110AB002222
:1010CB00E4FDFF1210EA7BFF7A0E79DC121045E487
:0F10DB00FD7F011210EA7BFF7A0E79ED021045BE
:100CD700EF14B40700505C900CEC75F003A4C583C7
:100CE70025F0C58373020D01020D09020D11020DD6
:100CF70019020D21020D29020D317BFF7A0E79FEB3
:100D0700802E7BFF7A0F790280267BFF7A0F790688
:100D1700801E7BFF7A0F790A80167BFF7A0F790E88
:100D2700800E7BFF7A0F791280067BFF7A0F791688
:040D3700121045222F
:100DEE007D02E4FF1210EAAF161211087D05E4FF32
:100DFE001210EAAF171211087D08E4FF1210EAAFC5
:100E0E0018121108E4FD7F011210EAAF1A12110830
:100E1E007D037F011210EAAF1B1211087D067F01C0
:100E2E001210EAAF1C1211087D0CE4FF1210EAAF8B
:040E3E0019020CD7B2
:100F8F00E515B40113E51FB51A0EE51DB51B09E5EF
:100F9F001C7005AF0812118CE51CB43B031211CB6A
:100FAF0020B5141211CB7F0A7E0012108C30B5FDC4
:080FBF007F0A7E0012108C2253
:100A8C001211B712000E120FF21210CB7F81120F3F
:100A9C001AEFC394804003120B847F007E20121047
:100AAC00AC8F1FE51FD394174003751F0C7F017E7D
:100ABC00201210AC8F1DE51DD3943B4003751D1EF9
:100ACC007F027E201210AC8F15E515D394014003E4
:100ADC00E4F5157F037E201210AC8F08E508D39443
:100AEC00034003E4F508120D9A120DEE120F8F124B
:0E0AFC0003DE1206B27F647E0012108C80E8CA
:05001500007FF7DFFE93
:01001A0022C3
:04106A00AD07AC061C
:10106E00E4FBFAED25E0FFEC33FEC3EB9FEA9E5066
:0D107E000CB2A01200150BBB00010A80E6A9
:01108B002242
:10001E000000F88CF8F3F95BF9B8FA15FA67FAB93B
:10002E00FB04FB4BFB90FBCFFC10FC44FC79FCACBF
:10003E00FCDCFD09FD34FD5CFD82FDA6FDC8FDE87E
:10004E00FE06FE22FE3DFE56FE6EFE85FE9AFEAEBC
:10005E00FEC1FED3FEE4FEF4FF0311020F021202F4
:10006E0011040D0214021802190218020D020D04D9
:10007E000D021602160200021602140214041402D5
:10008E00120211020F0211021202110A11021302C0
:10009E00150211041202140218021B021802190290
:1000AE001906000219021902140214021602140192
:1000BE00120112020F0211021202140216020D0296
:1000CE0016031801180411020F02120211040D0278
:1000DE0014021802190218020D020D040D02160266
:1000EE001602000216021402140414021202110265
:1000FE000F0211021202110A11021302150211044B
:10010E001202140218021B0218021902190600022A
:10011E0019021902140214021602140212020A0221
:10012E000C020D020F0211020F0611020D0A000839
:10013E00FF0D020F0211021401140911020F020D1C
:10014E00020F0111090D020F0211021801190719F0
:10015E00021802160214021601160214070D020FDF
:10016E000211021401140911020F020D020F010DEA
:10017E00090D020F021102140214021202120211D0
:10018E00021904110211020F080D020F02110214BE
:10019E0001140911020F020D020F0111090D020FB8
:1001AE00021102180119071902180216021402167A
:1001BE0001160214070D020F021102140114091187
:1001CE00020F020D020F010D090D020F0211021492
:1001DE00010D090D020C020A020C010D090008FFA7
:1001EE00190219021902180216021406140212023A
:1001FE0011020F020D041902190219021802160239
:10020E001404120211020F0819021902190218021F
:10021E00160214041602180219041B0219021D04F8
:10022E0019011B081D021B0219021B0419011605D8
:10023E001D021B021902190219021B021D021B0AC2
:10024E001D06160219021B021D021E041D061902AE
:10025E001B021D021E041D0619021B021D021E0496
:10026E001D061B021902160219041B0414021902A0
:10027E001B021D021E041D061B0219021D021B0479
:10028E0019061B021902160219021B021902160286
:10029E0019021D021B0219021B061B03190119105C
:1002AE000010FF0D020A020C040D041108000414C4
:1002BE0001140311040003080111010F010D020FB7
:1002CE00020C06000400020D020C020A0200040DCC
:1002DE00020A020C040D0411080004140116031185
:1002EE0004000308011401120211030D040F06008D
:1002FE000211020F020D020A0208020A0208010A86
:10030E00031102000208020A0208020A0208010A88
:10031E000311020002110211020F020F020D010D54
:10032E00030F020002120411021202140600011140
:10033E00010F010D010F021102000111010F010D3C
:10034E00010F02110200021101110111021101111E
:10035E00021202140311020F0211020F020D010DFF
:10036E000500020D020F02110212021102120214F6
:10037E000411020002080214060D020C030D010006
:10038E0002160214060D020C030D0100020F0111DC
:10039E000111030A020D0200020D020C020D0216DB
:1003AE0004140214060008FF51696E675469616EE9
:1003BE00000048756148616920200000416943755D
:1003CE006F20202000005975416920202020000058
:10102900080B0068013F01EE02B10108000113003D
:0B10390002090000C100C10101140009
:100FF2005389F0438901758A18758CFCC28DC28CA5
:10100200D2A953890F438910758B18758DFCC28F35
:0B101200D28ED2ABD2AFD2B9C2BB224B
:10118C008F211211CB852108E4F513F509F50AD24C
:06119C0001D200D28C22FA
:0711CB00C28CC200C2A02289
:03000B00020E42A0
:100E4200C0E0C083C082C0D075D000C0063000327E
:100E5200E51425E0241EF582E43400F58374019341
:100E62007002E493601CE51425E0241EF582E4344C
:100E720000F583E493FE740193F58AEEF58CB2A03B
:0F0E82008002C2A0D006D0D0D082D083D0E03280
:03001B000209498E
:10094900C0E0C0F0C083C082C0D075D000C000C074
:1009590006C007758B18758DFC2000030209EF0589
:100969000AE50A70020509300137C201E50825E0E8
:10097900240BF8E6FE08E6FF8E832513F582E4359D
:1009890083F583E493B4FF037513008F828E83AFDD
:10099900130513E5822FF582E43583F583E493F596
:1009A90014E50825E0240BF8E6FE08E68E832513F6
:1009B900F582E43583F583E49375F0AFA4FFC3E5CD
:1009C9000A9FE50995F0400E0513750900750A009F
:1009D900D201C28CC2A0C3E50A9405E5099400407E
:1009E90005208C02D28CD007D006D000D0D0D0827E
:0709F900D083D0F0D0E03202
:1011A200EF1FAC0670011E4C600A7D027CEFDCFE74
:0411B200DDFC80ECF4
:0111B6002216
:100A0C00020A8CE493A3F8E493A34003F68001F26A
:100A1C0008DFF48029E493A3F85407240CC8C333EB
:100A2C00C4540F4420C8834004F456800146F6DFBA
:100A3C00E4800B010204081020408090101DE47E1D
:100A4C00019360BCA3FF543F30E509541FFEE493AF
:100A5C00A360010ECF54C025E060A840B8E493A376
:100A6C00FAE493A3F8E493A3C8C582C8CAC583CAA1
:100A7C00F0A3C8C582C8CAC583CADFE9DEE780BE59
:0110440000AB
:100C6900BB010689828A83E0225002E722BBFE0289
:090C7900E32289828A83E49322BC
:100C8200BC000BBE0029EF8DF084FFADF022E4CC56
:100C9200F875F008EF2FFFEE33FEEC33FCEE9DEC1F
:100CA200984005FCEE9DFE0FD5F0E9E4CEFD22ED65
:100CB200F8F5F0EE8420D21CFEADF075F008EF2FAF
:100CC200FFED33FD4007985006D5F0F222C398FDA0
:050CD2000FD5F0EA223D
:00000001FF
