:0300000002025A9F
:0C025A00787FE4F6D8FD7581200202A137
:10000E00506C61792046696E697368656400507240
:10001E00657373204B657920312D3300204D757338
:10002E00696320506C617965722000536F6E673181
:10003E003A2053746172004C6974746C6520537469
:10004E0061722E2E2E00536F6E67323A20546967FE
:10005E0065720054776F205469676572732E2E2E69
:10006E0000536F6E67333A20426972746864617927
:10007E000048617070792042697274686461790019
:10008E000000F88CF8F3F95BF9B8FA15FA67FAB9CB
:10009E00FB04FB4BFB90FBCFFC10FC44FC79FCAC4F
:1000AE00FCDCFD09FD34FD5CFD82FDA608010801A6
:1000BE000C010C010D010D010C020B010B010A01CB
:1000CE000A010901090108020C010C010B010B01C7
:1000DE000A010A0109020C010C010B010B010A01B4
:1000EE000A010902080108010C010C010D010D01A4
:1000FE000C020B010B010A010A0109010901080298
:10010E000000080109010A010801080109010A019C
:10011E0008010A010B010C020A010B010C020C0171
:10012E000D010C010B010A0108010C010D010C015E
:10013E000B010A0108010901050108020901050167
:10014E000802000008010801090208020B020A0455
:10015E0008010801090208020C020B04080108013B
:10016E000F020D020B020A0209020E010E010D0210
:08017E000B020C020B0400004F
:0600030002100000C10024
:040409007F0A7E00E8
:10040D00D3EF9400EE940040147D6E7C00ED1D70D2
:0D041D00011CED4C70F7EF1F70E61E80E330
:01042A0022AF
:10047C00C2A0C2A18F80D2A27F017E0012040DC245
:02048C00A222AA
:10048E00D2A0C2A18F80D2A27F017E0012040DC223
:02049E00A22298
:1004A000AE07ED7005EE24808003EE24C0FF120439
:0204B0007C22AC
:0E042B00E4FDFF1204397A007B1C7D01E4FF22
:100439008B828A831204A0E493FF600612048EA3C0
:0304490080F52219
:0C04BF007F0112047C7F027E0002040D0D
:10044C007F3812047C7F0C12047C7F0612047C7FA4
:0B045C000112047C7F027E0002040DF0
:1003D90020B00C12040920B00630B0FD7F012220A4
:1003E900B10C12040920B10630B1FD7F022220B2FE
:1003F9000C12040920B20630B2FD7F03227F0022CD
:0703A700AF0F7DFA1202E620
:0403AE00AB07AA06E9
:1003B2009000007C007D0AAF03AE021202F8C3E592
:1003C200829FE5839E500D1204091203D9EF60014A
:0603D20022A380DF7F0082
:0103D8002202
:0C0186008E098F0A8A0B8B0C8D828C83F3
:10019200E4F50D1204BFAB82AA83E4FDFF12043919
:1001A200AB0CAA0B120435E50A250DF582E43509DC
:1001B200F583E493FF7016E50D2401FDE433FCE5BD
:1001C2000A2DF582E5093CF583E49360788F0EE50C
:1001D2000D2401FFE433FEE50A2FF582E5093EF521
:1001E20083E493F50F050D050D1203D9A907E96004
:1001F2000122E50E7011C28CC200C295FEFC1203F0
:10020200A7A907E960A122E50E25E0248EF582E484
:100212003400F583E493F510740193F511E510F5BC
:100222008C85118AD200D28C7E007C001203A7A991
:1002320007C28CC200C295E96001227F147E0012BF
:10024200040D0201A9C28CC200C2951204BF7A0039
:070252007B0E12042B7F005C
:010259002282
:0D04B2005389F0438901D2A9D2AFC28C2238
:10034D00E4F9F5081204B212044C7A007B2A120467
:10035D002BE970051203D9A907B9010E7E007FBAEA
:10036D007C007D397A007B45800FB902157E017FB7
:10037D00107C007D547A007B611201868F08A908DC
:10038D0080CFB903CC7E017F527C007D6F7A007BDC
:0A039D007F1201868F08A90880B7BF
:03000B0002046785
:10046700C0E030000BE510F58C85118AB29580024B
:05047700C295D0E03247
:1002660002034DE493A3F8E493A34003F68001F25E
:1002760008DFF48029E493A3F85407240CC8C33399
:10028600C4540F4420C8834004F456800146F6DF68
:10029600E4800B0102040810204080900003E47EF5
:1002A600019360BCA3FF543F30E509541FFEE4935D
:1002B600A360010ECF54C025E060A840B8E493A324
:1002C600FAE493A3F8E493A3C8C582C8CAC583CA4F
:1002D600F0A3C8C582C8CAC583CADFE9DEE780BE07
:0100090000F6
:1002E600EF8DF0A4A8F0CF8CF0A428CE8DF0A42E2C
:0202F600FE22E6
:1002F800BC000BBE0029EF8DF084FFADF022E4CCEA
:10030800F875F008EF2FFFEE33FEEC33FCEE9DECB2
:10031800984005FCEE9DFE0FD5F0E9E4CEFD22EDF8
:10032800F8F5F0EE8420D21CFEADF075F008EF2F42
:10033800FFED33FD4007985006D5F0F222C398FD33
:050348000FD5F0EA22D0
:00000001FF
