:03000000020B43AD
:0C0B4300787FE4F6D8FD758173020B4F3B
:10098A00202020202020202020202020202020205D
:10099A0000256C6400526573756C743A0031323309
:1009AA002B3435362D3738392A3C303D2F0000009C
:1009BA00000000000000000000000000000000002D
:1009CA00000000000000000000000000000000001D
:1009DA00000000000000000000000000000000000D
:0909EA0000000000000000000004
:070A9E00120B1F7F057E0013
:100AA500D3EF9400EE940040147D6E7C00ED1D7034
:0D0AB500011CED4C70F7EF1F70E61E80E392
:010AC2002211
:100B1F00C2A6C2A58F80D2A47F017E00120AA5C2F1
:020B2F00A422FE
:100B3100D2A6C2A58F80D2A47F017E00120AA5C2CF
:020B4100A422EC
:100AE8007F0A7E00120AA57F38120A9E7F0C120A1E
:100AF8009E7F06120A9E7F01120B1F7F057E000251
:020B08000AA53C
:070A37007BFF7A09798AFFB9
:060A3E008B608A618962F1
:100A4400ED7007EF2480F5638005EF24C0F563AFF4
:100A540063120B1FAB60AA61A962120455601305EF
:100A640062E5627002056114F9120455FF120B313C
:020A740080E21E
:010A7600225D
:1007A7007DFFC290D291D292D293209408E4FF2584
:1007B700E025E02FFD209509E47F0125E025E02FC6
:1007C700FD209609E47F0225E025E02FFD2097090B
:1007D700E47F0325E025E02FFDD290C291D292D28B
:1007E70093209409E4FF0425E025E02FFD20950BD5
:1007F7007E017F01EE25E025E02FFD20960B7E018F
:100807007F02EE25E025E02FFD20970B7E017F0379
:10081700EE25E025E02FFDD290D291C292D293200F
:10082700940B7E02E4FFEE25E025E02FFD20950BDB
:100837007E027F01EE25E025E02FFD20960B7E024C
:100847007F02EE25E025E02FFD20970B7E027F0338
:10085700EE25E025E02FFDD290D291D292C29320CF
:10086700940B7E03E4FFEE25E025E02FFD20950B9A
:100877007E037F01EE25E025E02FFD20960B7E030A
:100887007F02EE25E025E02FFD20970A7E03EE2567
:08089700E025E02403FDAF059C
:01089F002236
:100AC3001207A7AC07ECF460197F147E00120AA585
:100AD3001207A7AC07ECF460091207A7BFFFFAAF30
:040AE30004227FFF6B
:010AE70022EC
:080600008B608A6189628D6341
:10060800E4F564F569F568F567F566F56DF56CF57B
:100618006BF56AAF63EF3395E0FEC3E5649FEE6464
:1006280080F87480985074AB60AA61A9628564826E
:1006380075830012046EFF642B6060EF642D605BAD
:10064800EF642A6056EF642F6051AF69AE68AD67FA
:10065800AC66E47B0AFAF9F812049B8F698E688D00
:10066800678C66AB60AA61A9628564827583001293
:10067800046EFF3395E0FEEF24D0FFEE34FFFEE476
:10068800FCFDE5692FF569E5683EF568ED3567F528
:1006980067EC3566F566056402061BAB60AA61A9BE
:1006A80062AF6405648F8275830012046EF565AFCE
:1006B80063EF3395E0FEC3E5649FEE6480F87480D1
:1006C800985063AB60AA61A9628564827583001241
:1006D800046E643D6050AF6DAE6CAD6BAC6AE47B8C
:1006E8000AFAF9F812049B8F6D8E6C8D6B8C6AABCD
:1006F80060AA61A96285648275830012046EFF3363
:1007080095E0FEEF24D0FFEE34FFFEE4FCFDE56D3E
:100718002FF56DE56C3EF56CED356BF56BEC356AD8
:10072800F56A05648089E56524D6603724FD601D77
:1007380024FE604224047061E569256DFFE5683593
:100748006CFEE567356BFDE566356AFC22C3E56935
:10075800956DFFE568956CFEE567956BFDE566951B
:100768006AFC22AF6DAE6CAD6BAC6AAB69AA68A9C6
:1007780067A86602049BAF6DAE6CAD6BAC6AEC4DBE
:100788004E4F70028014AB6DAA6CA96BA86AAF6952
:0E079800AE68AD67AC660209F3E4FFFEFDFC3F
:0107A6002230
:1008A00078227C007D007BFF7A0979B77E007F1E6D
:1008B00012042F78407C007D007BFF7A0979D57E79
:1008C000007F1E12042FE4F55F7BFF7A09798AFD11
:1008D000FF120A3E7D01E4120A37120AC38F5EE559
:1008E0005EF46052E55EB40C0BE55FD39400400407
:1008F000155F801DE55E640C601EE55E640E601889
:10090000E55E9009A793FFAE5F055F74402EF8A6E1
:10091000077440255FF8E4F6E4FD120A377B007A9D
:10092000007940120B0AC374109FFF7B007A007994
:1009300040E4FD120A3EE55E640E709EFB7A00798B
:1009400040120B0AAD077B007A0079401206008F37
:10095000698E688D678C667563FF75640975659B24
:100960007B007A00792212005F7BFF7A09799F7DF4
:1009700001E4FF120A3E7B007A0079227D017F07A5
:0A098000120A3E7FD07E07020AA58E
:080B4F00120AE81208A080FB65
:10035F00E709F608DFFA8046E709F208DFFA803E80
:10036F0088828C83E709F0A3DFFA8032E309F6086D
:10037F00DFFA8078E309F208DFFA807088828C83D5
:10038F00E309F0A3DFFA806489828A83E0A3F60889
:10039F00DFFA805889828A83E0A3F208DFFA804C63
:1003AF0080D280FA80C680D4806980F2803380103A
:1003BF0080A680EA809A80A880DA80E280CA8033A3
:1003CF0089828A83ECFAE493A3C8C582C8CCC5831B
:1003DF00CCF0A3C8C582C8CCC583CCDFE9DEE780EB
:1003EF000D89828A83E493A3F608DFF9ECFAA9F06A
:1003FF00EDFB2289828A83ECFAE0A3C8C582C8CCC0
:10040F00C583CCF0A3C8C582C8CCC583CCDFEADED8
:10041F00E880DB89828A83E493A3F208DFF980CC3A
:10042F0088F0EF60010E4E60C388F0ED2402B40433
:10043F000050B9F582EB2402B4040050AF232345DA
:06044F0082239003AF734D
:10045500BB010689828A83E0225002E722BBFE02A5
:09046500E32289828A83E49322D8
:10046E00BB010CE58229F582E5833AF583E0225043
:10047E0006E92582F8E622BBFE06E92582F8E2228D
:0D048E00E58229F582E5833AF583E49322A7
:10049B00E88FF0A4CC8BF0A42CFCE98EF0A42CFC00
:1004AB008AF0EDA42CFCEA8EF0A4CDA8F08BF0A47E
:1004BB002DCC3825F0FDE98FF0A42CCD35F0FCEBDD
:1004CB008EF0A4FEA9F0EB8FF0A4CFC5F02ECD39A2
:0F04DB00FEE43CFCEAA42DCE35F0FDE43CFC220F
:1009F300C2D5E830E70FB2D5E4C39BFBE49AFAE42F
:100A030099F9E498F8EC30E717B2D5120A291205E0
:100A130038E4C39BFBE49AFAE499F9E498F8800379
:100A230012053830D50DE4C39FFFE49EFEE49DFD1F
:040A3300E49CFC2221
:10000300E56F2463F8E6056F2278603007027863B2
:10001300E475F0011205CA0204552000EB7F2ED2CD
:10002300008018EF540F2490D43440D4FF30040BD5
:10003300EF24BFB41A0050032461FFE5706002157A
:10004300700573E5737002057230070D7860E4750F
:10005300F0011205CAEF0204EA020A777403D20719
:100063008003E4C207F56F8B608A618962E4F570EF
:10007300F572F573E57060077F2012003E80F57519
:1000830071FFC201C200C202C203C205C206C20896
:1000930012000CFF700D3007057F0012004FAF7385
:1000A300AE7222B4255FC2D5C20412000CFF24D065
:1000B300B40A00501A75F00A787030D50508B6FFF7
:1000C3000106C6A426F620D5047002D20380D924E3
:1000D300CFB41A00EF5004C2E5D20402024FD2019A
:1000E30080C6D20080C0D20280BCD2D580BAD205ED
:1000F30080B47F2012003E2002077401B5700040D7
:10010300F1120003FF12003E020077D208D20680EC
:1001130095120003FB120003FA120003F94A4B7015
:100123000679207A037BFF20022EE570602A7E0089
:100133008E8275830012046E60060EEE657170F098
:10014300C2D5EBC0E0EAC0E0E9C0E0EE120296D00F
:10015300E0F9D0E0FAD0E0FB120455FF60AAEBC04F
:10016300E0EAC0E0E9C0E012003ED0E02401F9D0AB
:10017300E03400FAD0E0FBE5710460DCD571D9808E
:10018300877BFF7A027992D202809C791080027970
:1001930008C206C2088008D2D5790A8004790AC247
:1001A300D5E571047002F571E4FAFDFEFF12000358
:1001B300FC7B08200113120003FD7B1030000A12A0
:1001C3000003FE120003FF7B20EC3382D592D5504F
:1001D30013C3E43000069FFFE49EFEE42001039D69
:1001E300FDE49CFCE4CBF8C201EC700CCFCECDCC8B
:1001F300E824F8F870F38017C3EF33FFEE33FEED16
:1002030033FDEC33FCEB33FB994002FB0FD8E9EBF6
:10021300300105F8D0E0C448B201C0E00AEC4D4E0D
:100223004F78207B0070C2EAB5710040BCC0E01279
:100233000298D0F0D0E0200104C4C0E0C4B201C0F1
:10024300F0120027D0F0D5F0EB0200771205DA01A7
:100253001453018E5800E54C00E14201924F019A7C
:0F02630044019A4900FA4301A0550184460184E1
:100272004501844703405000E92D00ED2E01102B6B
:1002820000F123010E2003292A00A94800000108D9
:100292003F3F3F00790AA2D5200314300509B91067
:1002A200020404B9080104A2D52006025001042068
:1002B20002689202B570005034C0E07F203003190A
:1002C2007F30A20272067205500F1202EFC202C202
:1002D20006C205C2087F30800F300503E9C0E01274
:1002E200003E300503D0E0F9D0E0B570CC30051700
:1002F2007F30B9100C12003E7F583004077F78809F
:1003020003B9080312003E3002057F2D02003E7F32
:10031200202008F87F2B2006F322920280CF286E3D
:10032200756C6C2900D2011200033001F8C2017809
:100332007030D50108F60200A92D50434958120029
:10034200032403B405004001E490033B9312002F01
:0D035200743A12002FD20375700402018E60
:100B0A00E4FFFE120455600C0FEF70010E09E97044
:050B1A00F20A80EF2249
:1004EA00BB010689828A83F0225002F722BBFE01F1
:0204FA00F322EB
:1004FC0075F008758200EF2FFFEE33FECD33CDCCB7
:10050C0033CCC58233C5829BED9AEC99E582984039
:10051C000CF582EE9BFEED9AFDEC99FC0FD5F0D616
:10052C00E4CEFBE4CDFAE4CCF9A88222B800C1B940
:10053C000059BA002DEC8BF084CFCECDFCE5F0CB7E
:10054C00F97818EF2FFFEE33FEED33FDEC33FCEBB7
:10055C0033FB10D703994004EB99FB0FD8E5E4F972
:10056C00FA227818EF2FFFEE33FEED33FDEC33FC5F
:10057C00C933C910D7059BE99A4007EC9BFCE99A53
:10058C00F90FD8E0E4C9FAE4CCFB2275F010EF2F98
:10059C00FFEE33FEED33FDCC33CCC833C810D70798
:1005AC009BEC9AE899400AED9BFDEC9AFCE899F8D3
:0E05BC000FD5F0DAE4CDFBE4CCFAE4C8F92266
:1005CA00FAE6FB0808E6F925F0F618E6CA3AF62232
:1005DA00D083D082F8E4937012740193700DA3A3B0
:1005EA0093F8740193F5828883E4737402936860C4
:0605FA00EFA3A3A380DFC4
:100A7700EFB40A07740D120A82740A309811A89904
:100A8700B8130CC2983098FDA899C298B811F630DF
:070A970099FDC299F59922B7
:00000001FF
