:030000000201609A
:0C016000787FE4F6D8FD75813A0201A713
:1003FA0054494D453A00434C4F434B3A0052494EFB
:10040A004700204D302000204D312000204D322061
:01041A0000E1
:10031D00012100012F0001220001250A01280801F9
:10032D00230C012408093030383A31303A3030008E
:10033D00062930383A313200023900000226000019
:04034D00C100C10129
:0403D8007F147E0010
:1003DC00D3EF9400EE940040147D6E7C00ED1D7004
:0D03EC00011CED4C70F7EF1F70E61E80E362
:0103F90022E1
:1004A1005389F0438901758CFC758A18D2A9D2AFA2
:0304B100D28C22C8
:10029B00E52875F00A842430F530E52875F00A84DA
:1002AB00E5F02430F531E52575F00A842430F5337B
:1002BB00E52575F00A84E5F02430F534E52275F078
:1002CB000A842430F536E52275F00A84E5F02430F3
:0302DB00F53722D2
:10038300E52475F00A842430F529E52475F00A8400
:10039300E5F02430F52AE52375F00A842430F52CA2
:0D03A300E52375F00A84E5F02430F52D22E5
:1001EC0012029B1203837BFF7A0379FAE4FD7F01F1
:1001FC0012041B7B007A0079307D057F0112041BF1
:10020C007BFF7A047900E4FD7F0212041B7B007AE9
:10021C000079297D067F0212041B3001087BFF7ACE
:10022C00047907801DE52170087BFF7A04790C8026
:10023C0011E5217BFFB401067A04791180047A045C
:0A024C0079167D0C7F0212041B22BC
:10025600E52170057F0C0204B4E5216401701C7F62
:100266000E1204B4E52F70047D06800BE52FB40151
:10027600047D0980027D0C7F018016E521B40214FD
:100286007F0E1204B4E52F70047D0780027D0A7F7D
:05029600021204D42255
:1003B000E522C3943B5003052222E4F522E525C340
:1003C000943B5003052522E4F525E528C3941750F6
:0803D00003052822E4F52822B0
:10048C00E528B5240FE525B5230AE5227006D2012F
:05049C00F526F5272202
:0A04E300C201E4F526F527C2A322AA
:10000E0020B0231203D820B01D1204E3E4F52FE52F
:10001E0021C39402500405218003E4F5211201EC62
:10002E0012025630B0FD20B1321203D820B12C127C
:10003E0004E3E521B4010BE52FC394025014052F00
:10004E008013E521B4020EE52FC394015004052F51
:10005E008003E4F52F12025630B1FD20B278120360
:10006E00D820B2721204E3E52164017039E52F70D5
:10007E0010E528C39417500405288051E4F5288014
:10008E004CE52FB40110E525C3943B5004052580A3
:10009E003CE4F5258037E522C3943B5004052280CD
:1000AE002CE4F5228027E521B40222E52F7010E51D
:1000BE0024C39417500405248013E4F524800EE520
:1000CE0023C3943B500405238003E4F5231201EC73
:1000DE0012025630B2FD20B3781203D820B372123A
:1000EE0004E3E52164017039E52F7010E528D394FF
:1000FE0000400415288051752817804CE52FB40157
:10010E0010E525D3940040041525803C75253B80D1
:10011E0037E522D3940040041522802C75223B80B3
:10012E0027E521B40222E52F7010E524D394004078
:10013E000415248013752417800EE523D3940040F4
:10014E00041523800375233B1201EC12025630B3C3
:02015E00FD2280
:1002DE00C2A31204581204A11201EC12025612000B
:1002EE000E3000FAC200E52170091203B012048C20
:1002FE001201EC3001E80527E52770020526C394AC
:0F030E0014E526940040D71204E31201EC80CFCF
:03000B000203529B
:10035200C0E0C0D0758CFC758A18053AE53A700287
:100362000539C394E8E53994034008753900753AB4
:1003720000D200300104B2A38002C2A3D0D0D0E0E8
:010382003248
:10043C00C2A18F807F327E0012044DD2A27F327E09
:01044C0000AF
:0B044D00EF1FAC0670011E4C70F62281
:1004B400C2A2C2A012043CC2A27F327E0002044D3A
:1004C400C2A2D2A012043CC2A27F327E0002044D1A
:0F04D400EDBF01042480800224C0FF1204B42273
:10041B00EDBF01042480800224C0FF1204B4120437
:10042B0073FF600C1204C4740129F9E43AFA80EEEC
:01043B00229E
:100458007F381204B47F0C1204B47F061204B47FF0
:0B046800011204B47FE87E0302044D83
:10016C000202DEE493A3F8E493A34003F68001F2C9
:10017C0008DFF48029E493A3F85407240CC8C33394
:10018C00C4540F4420C8834004F456800146F6DF63
:10019C00E4800B010204081020408090031DE47ED3
:1001AC00019360BCA3FF543F30E509541FFEE49358
:1001BC00A360010ECF54C025E060A840B8E493A31F
:1001CC00FAE493A3F8E493A3C8C582C8CAC583CA4A
:1001DC00F0A3C8C582C8CAC583CADFE9DEE780BE02
:0103510000AB
:10047300BB010689828A83E0225002E722BBFE0287
:09048300E32289828A83E49322BA
:00000001FF
