:0300000002050AEC
:0C050A00787FE4F6D8FD75813A020551B7
:100596002020436F756E74646F776E2020202020B4
:1005A600002A2A2054494D452049532055502120E0
:1005B6002A2A005072657373205354415254204BBB
:1005C600657920004D6F64653A2052554E4E494E6E
:1005D60047203E3E004D6F64653A205041555345D5
:1005E60044207C7C200054696D653A2025303264B5
:0B05F6003A2530326420202020200035
:100003000226000001250002230000012200C10A8C
:06001300C10902390000E2
:0A067F00C2A18F80D2A27F017E008D
:10068900D3EF9400EE940040147D6E7C00ED1D7054
:0D069900011CED4C70F7EF1F70E61E80E3B2
:0106A6002231
:0806F500C2A012067FC2A2227E
:0806FD00D2A012067FC2A22266
:050654007BFFE4FDFF47
:100659008F08ED7006E50824808004E50824C0FFB2
:100669001206F512047CFF600C1206FD740129F9CB
:06067900E43AFA80EE22D3
:1006CE007F381206F57F0C1206F57F061206F57FAF
:0406DE00010206F51A
:1006E20053890F438910758D3C758BB0D2ABD2AF55
:0306F200D28E2283
:03001B00020601D9
:10060100C0E0C0D0758D3C758BB0300A4120093EE9
:10061100053AE53A70020539C39414E5399400406E
:100621002D753900753A00E522D394004004152256
:10063100801CD3E5249400E5239400400D75223BF2
:10064100E5241524700815238004C20AD209D0D0EC
:03065100D0E032C4
:10037A001206CE1206E2D2957A0579961206543002
:10038A0009167A0579A71206547A0579B97D01E426
:10039A00FF120659C295803FD2957BFF300A067A32
:1003AA000579CA80047A0579DBE4FDFF12065975DE
:1003BA000BFF750C05750DEC85230E85240F852220
:1003CA00107B007A00792812007A7B007A0079285B
:1003DA007D01E4FF12065920B3217F147E00120624
:1003EA008920B31730090FC209852623852724855A
:1003FA002522D2958002B20A30B3FD200A81300943
:10040A000302038920A3317F147E0012068920A3E8
:10041A0027740A2527F527E43526F526D3E52794F8
:10042A0063E52694004005E4F526F527852623850D
:10043A00272485252230A3FD30A4030203897F14D3
:10044A007E0012068930A4030203890527E5277076
:10045A00020526D39463E52694004005E4F526F5C3
:10046A002785262385272485252230A4030203898C
:02047A0080F808
:1005160002037AE493A3F8E493A34003F68001F27E
:1005260008DFF48029E493A3F85407240CC8C333E6
:10053600C4540F4420C8834004F456800146F6DFB5
:10054600E4800B0102040810204080900003E47E42
:10055600019360BCA3FF543F30E509541FFEE493AA
:10056600A360010ECF54C025E060A840B8E493A371
:10057600FAE493A3F8E493A3C8C582C8CAC583CA9C
:10058600F0A3C8C582C8CAC583CADFE9DEE780BE54
:0100190000E6
:10047C00BB010689828A83E0225002E722BBFE027E
:09048C00E32289828A83E49322B1
:10001E00E517240BF8E60517227808300702780B4F
:10002E00E475F0011204D402047C2000EB7F2ED282
:10003E00008018EF540F2490D43440D4FF30040BBA
:10004E00EF24BFB41A0050032461FFE518600215B7
:10005E0018051BE51B7002051A30070D7808E475AC
:10006E00F0011204D4EF0204C20206A77403D207F1
:10007E008003E4C207F5178B088A09890AE4F5188C
:10008E00F51AF51BE51860077F2012005980F575EB
:10009E0019FFC201C200C202C203C205C206C208D3
:1000AE00120027FF700D3007057F0012006AAF1B8C
:1000BE00AE1A22B4255FC2D5C204120027FF24D087
:1000CE00B40A00501A75F00A781830D50508B6FF34
:1000DE000106C6A426F620D5047002D20380D924C8
:1000EE00CFB41A00EF5004C2E5D20402026AD20164
:1000FE0080C6D20080C0D20280BCD2D580BAD205D2
:10010E0080B47F201200592002077401B5180040F8
:10011E00F112001EFF120059020092D208D2068080
:10012E009512001EFB12001EFA12001EF94A4B70A9
:10013E0006793B7A037BFF20022EE518602A7E00AB
:10014E008E8275830012049560060EEE651970F0AE
:10015E00C2D5EBC0E0EAC0E0E9C0E0EE1202B1D0D9
:10016E00E0F9D0E0FAD0E0FB12047CFF60AAEBC00D
:10017E00E0EAC0E0E9C0E0120059D0E02401F9D075
:10018E00E03400FAD0E0FBE5190460DCD519D98023
:10019E00877BFF7A0279ADD202809C79108002793A
:1001AE0008C206C2088008D2D5790A8004790AC22C
:1001BE00D5E519047002F519E4FAFDFEFF12001ED2
:1001CE00FC7B0820011312001EFD7B1030000A126A
:1001DE00001EFE12001EFF7B20EC3382D592D550FE
:1001EE0013C3E43000069FFFE49EFEE42001039D4E
:1001FE00FDE49CFCE4CBF8C201EC700CCFCECDCC70
:10020E00E824F8F870F38017C3EF33FFEE33FEEDFA
:10021E0033FDEC33FCEB33FB994002FB0FD8E9EBDB
:10022E00300105F8D0E0C448B201C0E00AEC4D4EF2
:10023E004F78207B0070C2EAB5190040BCC0E012B6
:10024E0002B3D0F0D0E0200104C4C0E0C4B201C0BB
:10025E00F0120042D0F0D5F0EB0200921204E4014D
:10026E002F5301A95801004C00FC4201AD4F01B5BE
:0F027E004401B54901154301BB55019F46019F3E
:10028D0045019F47035B5001042D01082E012B2BC7
:10029D00010C2301292003442A00C4480000012336
:1002AD003F3F3F00790AA2D5200314300509B9104C
:1002BD00020404B9080104A2D5200602500104204D
:1002CD0002689202B518005034C0E07F2030031947
:1002DD007F30A20272067205500F12030AC202C2CB
:1002ED0006C205C2087F30800F300503E9C0E01259
:1002FD000059300503D0E0F9D0E0B518CC30051722
:10030D007F30B9100C1200597F583004077F788068
:10031D0003B908031200593002057F2D0200597FE1
:10032D00202008F87F2B2006F322920280CF286E22
:10033D00756C6C2900D20112001E3001F8C20178D3
:10034D001830D50108F60200C42D5043495812004B
:10035D001E2403B405004001E49003569312004A95
:0D036D00743A12004AD2037518040201A967
:10049500BB010CE58229F582E5833AF583E022501C
:1004A50006E92582F8E622BBFE06E92582F8E22266
:0D04B500E58229F582E5833AF583E4932280
:1004C200BB010689828A83F0225002F722BBFE0119
:0204D200F32213
:1004D400FAE6FB0808E6F925F0F618E6CA3AF62229
:1004E400D083D082F8E4937012740193700DA3A3A7
:1004F40093F8740193F5828883E4737402936860BB
:06050400EFA3A3A380DFBA
:1006A700EFB40A07740D1206B2740A309811A899AC
:1006B700B8130CC2983098FDA899C298B811F630B3
:0706C70099FDC299F599228B
:00000001FF
