:03000000020509ED
:0C050900787FE4F6D8FD758120020550D3
:0D065A0054494D453A00434C4F434B3A0084
:1005950001100002080000011100011B0A011D08DD
:1005A500011C0B011E08011F00091230383A3130B9
:0C05B5003A303000060A30383A3132008B
:0D064C00EFD3940040077E6EDEFE1F80F3AA
:01065900227E
:04062E007F107E2794
:0B063200EF1FAC0670011E4C70F6229A
:10000E00438901758CFC758A18D2A9D2AFD28C1295
:10001E0006187BFF7A06795AE4FD7F011205C27B32
:10002E00FF7A067960E4FD7F021205C27B007A003A
:10003E0079127D057F011205C27B007A00790A7D57
:10004E00067F021205C27F0C12066720B04412060C
:10005E002E20B03BE4F51FE510C3940250040510AA
:10006E008003E4F510E51014600E1460162402707F
:10007E001E7F0C12066780177F0E1206677D067FA5
:10008E000180097F0E1206677D067F0212063D3043
:10009E00B0FDE510640160030202A620B14912060C
:1000AE002E20B10EE51FC394025004051F8003E4F9
:1000BE00F51FE51F700C7F0E1206677D067F01127D
:1000CE00063DE51FB4010C7F0E1206677D097F0108
:1000DE0012063DE51FB4020C7F0E1206677D0C7FE3
:1000EE000112063D30B1FDE51F600302018420B20E
:1000FE004112062E20B20EE51DC394175004051DA5
:10010E008003E4F51DE51D75F00A842430F512E533
:10011E001D75F00A84E5F02430F5137B007A007922
:10012E00127D057F011205C27D067F0112063D304C
:10013E00B2FD20B34112062E20B30EE51DD394005E
:10014E004004151D8003751D17E51D75F00A8424E6
:10015E0030F512E51D75F00A84E5F02430F5137BB9
:10016E00007A0079127D057F011205C27D067F019E
:10017E0012063D30B3FDE51F640160030202152037
:10018E00B24112062E20B20EE51BC3943B5004055D
:10019E001B8003E4F51BE51B75F00A842430F5156E
:1001AE00E51B75F00A84E5F02430F5167B007A0025
:1001BE0079127D057F011205C27D097F0112063D70
:1001CE0030B2FD20B34112062E20B30EE51BD394A0
:1001DE00004004151B8003751B3BE51B75F00A845C
:1001EE002430F515E51B75F00A84E5F02430F5167C
:1001FE007B007A0079127D057F011205C27D097F91
:10020E000112063D30B3FDE51F640260030202A633
:10021E0020B24112062E20B20EE511C3943B5004BB
:10022E0005118003E4F511E51175F00A842430F50B
:10023E0015E51175F00A84E5F02430F5167B007A89
:10024E000079127D057F011205C27D097F0112061C
:10025E003D30B2FD20B34112062E20B30EE511D370
:10026E00940040041511800375113BE51175F00AD9
:10027E00842430F515E51175F00A84E5F02430F587
:10028E00167B007A0079127D057F011205C27D0969
:10029E007F0112063D30B3FDE510640260030200DB
:1002AE005920B12C12062E20B10CE51F70047F01CF
:1002BE0080027F008F1FE51F7F0E70071206677D7D
:1002CE000680051206677D097F0212063D30B1FDDC
:1002DE00E51F600302037520B24112062E20B20EF6
:1002EE00E51EC394175004051E8003E4F51EE51E9B
:1002FE0075F00A842430F50AE51E75F00A84E5F0DF
:10030E002430F50B7B007A00790A7D067F021205F8
:10031E00C27D067F0212063D30B2FD30B3030200ED
:10032E005912062E20B30EE51ED394004004151E5E
:10033E008003751E17E51E75F00A842430F50AE554
:10034E001E75F00A84E5F02430F50B7B007A0079F7
:10035E000A7D067F021205C27D067F0212063D301F
:10036E00B30302005980F820B24112062E20B20EBD
:10037E00E51CC3943B5004051C8003E4F51CE51CEE
:10038E0075F00A842430F50DE51C75F00A84E5F04D
:10039E002430F50E7B007A00790A7D067F02120565
:1003AE00C27D097F0212063D30B2FD30B30302005A
:1003BE005912062E20B30EE51CD394004004151CD2
:1003CE008003751C3BE51C75F00A842430F50DE5A1
:1003DE001C75F00A84E5F02430F50E7B007A007966
:1003EE000A7D067F021205C27D097F0212063D308C
:0703FE00B30302005980F86F
:03000B00020405E7
:10040500C0E0C0F0C083C082C0D075D000C000C0BD
:1004150001C002C003C004C005C006C007758CFC3E
:10042500758A18C3E50994E8E5089403500B050996
:10043500E509700205080204EE750800750900E576
:0E0445001DB51E06E51B651C6004E51B701C42
:10045300752000C2A37F1012064CD2A37F10120690
:0C0463004C0520E520C3940A40E980020B
:10046F00D2A3E5107079E511C3943B5004051180B8
:10047F001F751100E51BC3943B5004051B801175BC
:10048F001B00E51DC394175004051D8003751D0047
:10049F00E51D75F00A842430F512E51D75F00A8408
:1004AF00E5F02430F513E51B75F00A842430F515BB
:1004BF00E51B75F00A84E5F02430F516E51175F0AB
:1004CF000A842430F518E51175F00A84E5F024301C
:1004DF00F5197B007A0079127D057F011205C2D0D4
:1004EF0007D006D005D004D003D002D001D000D061
:0A04FF00D0D082D083D0F0D0E032DC
:1005E300C2A18F807F147E001205F4D2A27F147EF5
:0105F3000007
:0B05F400EF1FAC0670011E4C70F622D9
:0A066700C2A2C2A01205E3C2A22243
:0A067100C2A2D2A01205E3C2A22229
:0F063D00EDBF01042480800224C0FF1206672253
:1005C200EDBF01042480800224C0FF1206671205D9
:1005D200FFFF600C120671740129F9E43AFA80EE09
:0105E20022F6
:100618007F381206677F0C1206677F061206677F0F
:06062800E87E030205F468
:1005150002000EE493A3F8E493A34003F68001F2EE
:1005250008DFF48029E493A3F85407240CC8C333E7
:10053500C4540F4420C8834004F456800146F6DFB6
:10054500E4800B0102040810204080900595E47EAC
:10055500019360BCA3FF543F30E509541FFEE493AB
:10056500A360010ECF54C025E060A840B8E493A372
:10057500FAE493A3F8E493A3C8C582C8CAC583CA9D
:10058500F0A3C8C582C8CAC583CADFE9DEE780BE55
:0105C1000039
:1005FF00BB010689828A83E0225002E722BBFE02FA
:09060F00E32289828A83E493222C
:00000001FF
