:03000000020106F4
:0C010600787FE4F6D8FD75812002000E21
:1000F600FC60DAF266B6BEE0FEF6EE3E9C7A9E8EB6
:1000D0005389F0438901758CD8758AF0D2A9D2AFC3
:0300E000D28C229D
:03000B000200E30D
:1000E300C0E0758CD8758AF00509E509700205082A
:0300F300D0E03228
:09009700AF0B1200B57F647E007E
:1000A000AD09AC08C3E5099DFBE5089CFAC3EB9FCD
:0400B000EA9E40F094
:0100B4002229
:080003008F993099FDC299228A
:1000B500AE07EE75F00A849000F693FF120003EE8A
:0B00C50075F00A84E5F093FF020003D1
:09011200A2024003D38001C322C4
:10007000A29092021201129200A291920212011217
:1000800092013000062001037F012230010620008A
:06009000037F02227F0045
:010096002247
:10000E00E4F50BF50CF508F5091200D01200708F0F
:10001E000AE50A650C6017E50AB40102800AE50AD2
:10002E00B40205750B3C8003E4F50B850A0CE50A5A
:10003E00B40113120097E50BC394634005E4F50B6E
:10004E0080CA050B80C6E50AB40210120097E50BB4
:10005E007005750B3C80B5150B80B1E4FF1200994D
:02006E0080AA66
:00000001FF
