:030000000209BC36
:0C09BC00787FE4F6D8FD758120020A0364
:100A480054696D652000414C005345002020005337
:100A580065742000486F75722020202020202020F7
:100A6800004D696E75746520202020202000536594
:100A7800636F6E64202020202020004F4E20004FFE
:100A88004646002020202000040204020402080434
:060A98000402040208063E
:100CBC000112000116FF0117FF01150001140001BC
:100CCC001100011300C10009080700010C000012FB
:020CDC00000016
:060DEA00D2B67F027E007C
:0B0DF000EF1FAC0670011E4C70F622D5
:040C74007F0F7E0070
:100C7800E4FDFCC3ED9FEC9E5015E4FBFA0BBB00B2
:100C8800010AEB64784A70F50DBD00010C80E4227E
:100DB200EF75F00A84C454F0FEEF75F00A84EE2554
:030DC200F0FF221D
:070D9C00120E16EF547FFF59
:0F0DA300EFC4540F75F00AA4FEEF540F2EFF2279
:100DC500C2A08F807F017E00120C78D2A1120C7810
:030DD500C2A12296
:050D8400120D387F3A5A
:100D8900D2A08F807F017E00120C78D2A1120C783C
:030D9900C2A122D2
:100DD800A905EF7005E924808003E924C0FF120DFE
:020DE800C52222
:060C1D007BFF7D047F0156
:100C23008B1D8A1E891F120DD8AB1DAA1EA91F1268
:100C33000D6B6013051FE51F7002051E14F9120DDD
:080C43006BFF120D8980E22213
:100D3800A907E975F00A842430FF120D89E975F0D6
:0A0D48000A84E5F02430FF020D8953
:100CFE00C2A17F147E00120C787F38120DC57F0CB6
:0D0D0E00120DC57F06120DC57F01020DC537
:060CDF00C2B5C2B6D2B599
:100CE500AD07E4FBED1392B4120DEC120DEAC2B69A
:090CF500EDC313FD0BBB08EC225A
:100C9800E4FDD2B4FB30B40D7401A803088002C38C
:100CA80033D8FC4205120DEAC2B6120DEC0BBB0894
:040CB800E4AF05227E
:0D0E0900AA05120CDFAF02120CE5C2B522E3
:090E1600120CDF120C98C2B52287
:100BEB00E4FD7F8E120E09AF18120DB2AD077F8098
:100BFB00120E09AF1A120DB2AD077F82120E09AF9A
:100C0B0019120DB2AD077F84120E097D807F8E0203
:020C1B000E09C0
:100D1B007F81120D9C8F187F83120D9C8F1A7F85FC
:0D0D2B00120E16EF543FFF120DA38F192278
:100D5200C2B5C2B67F81120E16EF30E70B75190CC1
:090D6200E4F51AF518120BEB225E
:100AED00D2B0D2B1D2B2D2B320B00C120C7420B0AD
:100AFD000630B0FD7F012220B10C120C7420B1061E
:100B0D0030B1FD7F022220B20C120C7420B20630DF
:100B1D00B2FD7F032220B30C120C7420B30630B348
:070B2D00FD7F04227F00227E
:1008FC00E512B40113E519300103048002241775C5
:10090C00F01884AFF08F1922E512B40213E51A30F7
:10091C000103048002243B75F03C84AFF08F1A2253
:10092C00E512B40313E518300103048002243B756F
:10093C00F03C84AFF08F1822E512C394044070E5AC
:10094C001224FCFF75F00384FEEF75F00384AFF006
:10095C00EF7022EE75F003A42408F8E630010304CE
:10096C008002241775F01884ADF0EE75F003A42402
:10097C0008F8A60522EF64017022EE75F003A4249A
:10098C0009F8E6300103048002243B75F03C84AF87
:10099C00F0EE75F003A42409F8A60722EE75F00317
:1009AC00A4240AF8E670047F0180027F00A60722C7
:100A9E00120AEDA907E96046B9040EC200C290E53C
:100AAE0012603BE4F512020BEBB9011BE51270026A
:100ABE008011E512B40303120BEB0512E512D39469
:100ACE000C401B75120122B90208E5126010D2010A
:0F0ADE008009B90309E5126005C2011208FC2264
:0E0DFB00300003D29022C290E4F515F51422C8
:100B770020003DE516B51906E517651A6032E4FF52
:100B8700EF75F003A4240AF8E66021EF75F003A4DB
:100B97002408F8E6B51915EF75F003A42409F8E65B
:100BA700B51A09D200851916851A17220FBF03D067
:010BB700221B
:100B34007BFF7A0A7948E4FDFF120C23AF19120DEA
:100B440084AF1A120D84AF18120D387F20120D894C
:100B54003000087BFF7A0A794E8010E5127BFF6033
:100B6400067A0A795180047A0A79547D0EE4FF12D8
:030B74000C23222D
:1008000085111BE4F51CE512C394044013E5122482
:10081000FCFF75F00384F51BEF75F0038485F01C75
:10082000E4FD7F01120DD8E512C394014040E512AA
:10083000D3940350397BFF7A0A7957E4FD7F011284
:100840000C23E512B401077A0A795C120C1DE5123B
:10085000B402077A0A7969120C1DE5126403600379
:100860000208FB7BFF7A0A79767D040208F67F4155
:10087000120D89E51B2431FF120D897F20120D898D
:10088000E51B75F003A42408F8E6FF120D84E51BB0
:1008900075F003A42409F8E6FF120D387F20120D2D
:1008A00089E51B75F003A4240AF8E67BFF60067A4D
:1008B0000A798380047A0A79877D097F01120C23E3
:1008C000E512C3940440277F20120D89E51C7005B2
:1008D0007F48120D89E51CB401057F4D120D89E595
:1008E0001CB402057F45120D897F20020D897BFF14
:0C08F0007A0A798B7D0C7F01120C232208
:100BB800E51270180513E513C394194025E4F513DD
:100BC8000511E5119403401AE4F51122E512C394C6
:100BD80004400CE51224FC75F00384F5118000E450
:030BE800F51322E0
:090E1F00120BB8120B340208009A
:100C4B00120CFE120D52C290E5126005C3940440C3
:100C5B0003120D1B120A9E120B77120DFB120E1FA5
:090C6B007F3C7E00120C7880DF52
:1009C800020C4BE493A3F8E493A34003F68001F2EE
:1009D80008DFF48029E493A3F85407240CC8C33330
:1009E800C4540F4420C8834004F456800146F6DFFF
:1009F800E4800B0102040810204080900CBCE47EC7
:100A0800019360BCA3FF543F30E509541FFEE493F3
:100A1800A360010ECF54C025E060A840B8E493A3BA
:100A2800FAE493A3F8E493A3C8C582C8CAC583CAE5
:100A3800F0A3C8C582C8CAC583CADFE9DEE780BE9D
:010CDE000015
:100D6B00BB010689828A83E0225002E722BBFE0286
:090D7B00E32289828A83E49322B9
:00000001FF
