:030000000200D625
:0C00D600787FE4F6D8FD75812002011D42
:0A0006003F065B4F666D7D077F6FBC
:100219000309060606010C00C100010800C101C15D
:0302290003C1020C
:0401E0007F0A7E0014
:1001E400D3EF9400EE940040147D6E7C00ED1D70FE
:0D01F400011CED4C70F7EF1F70E61E80E35C
:0102010022DA
:10020200E509B40111E50AB4090CE50BB40307C210
:0702120000C201E4F508221F
:1001620030000E0508E508C394324005E4F508B2F4
:100172000175A0FFE50C700A300007300104F5801C
:100182008008E50990000693F58075A0FE7F017E48
:10019200001201E475A0FFE50CB4010B3000083039
:1001A2000105E4F5808008E50A90000693F5807564
:1001B200A0FD7F017E001201E475A0FFE50CB402F0
:1001C2000B300008300105E4F5808008E50B900053
:0E01D2000693F58075A0FB7F017E000201E41C
:03000300020010E8
:03001000D20332E6
:0300130002022DB9
:03022D00D20232C8
:10001600E4FBF58075A0FFD288D28AD2A8D2AAD2F4
:10002600AF30031C0BEBC394144015E4FB20B20E57
:10003600B200C201F50820B20512016280F8C203BF
:1000460030022F30002C0BEBC394144025E4FB2028
:10005600B31E7409250CF8067409250CF8E6D3942A
:10006600094002E4F612020220B30512016280F88A
:10007600C20230005520B5171201E020B509E50C83
:10008600D394004002150C20B50512016280F820B9
:10009600B6171201E020B609E50CC394025002051A
:1000A6000C20B60512016280F820B71E1201E0206E
:1000B600B7107409250CF8E670047609800116124B
:1000C600020220B70512016280F8120162020027BF
:1000E200020016E493A3F8E493A34003F68001F21E
:1000F20008DFF48029E493A3F85407240CC8C3331F
:10010200C4540F4420C8834004F456800146F6DFED
:10011200E4800B0102040810204080900219E47E62
:10012200019360BCA3FF543F30E509541FFEE493E2
:10013200A360010ECF54C025E060A840B8E493A3A9
:10014200FAE493A3F8E493A3C8C582C8CAC583CAD4
:10015200F0A3C8C582C8CAC583CADFE9DEE780BE8C
:01022C0000D1
:00000001FF
