:03000000020003F8
:0C000300787FE4F6D8FD75811A02004AEF
:100184001008FC60DAF266B6BEE0FEF6EE3E9C7A3B
:020194009E8E3D
:10016E00EF1FAA0670011E4A600B7D96EDD3940018
:05017E0040EE1D80F7BA
:010183002259
:080197008F993099FDC29922F5
:1000F6007C007D0A7E0012008F7D331200A1AA06C5
:10010600AB077C007D0A1200A174082FF8E64401B3
:10011600F51AAE02AF037C007D0A1200A174082D09
:10012600F8E6FEAF1A120197FF1201977FC87E000C
:0301360002016E55
:10013900E4F519F598C299E42519F582E43470F5C6
:1001490083E4F07F2C7E0112016EE42519F582E427
:100159003470F583E0F5187FF47E0112016EAF1853
:050169001200F680D237
:10000F00020139E493A3F8E493A34003F68001F2CD
:10001F0008DFF48029E493A3F85407240CC8C333F2
:10002F00C4540F4420C8834004F456800146F6DFC1
:10003F00E4800B0102040810204080900184E47ECC
:10004F00019360BCA3FF543F30E509541FFEE493B6
:10005F00A360010ECF54C025E060A840B8E493A37D
:10006F00FAE493A3F8E493A3C8C582C8CAC583CAA8
:10007F00F0A3C8C582C8CAC583CADFE9DEE780BE60
:010196000068
:10008F00EF8DF0A4A8F0CF8CF0A428CE8DF0A42E85
:02009F00FE223F
:1000A100BC000BBE0029EF8DF084FFADF022E4CC43
:1000B100F875F008EF2FFFEE33FEEC33FCEE9DEC0C
:1000C100984005FCEE9DFE0FD5F0E9E4CEFD22ED52
:1000D100F8F5F0EE8420D21CFEADF075F008EF2F9C
:1000E100FFED33FD4007985006D5F0F222C398FD8D
:0500F1000FD5F0EA222A
:00000001FF
