:03000000020016E5
:0C001600787FE4F6D8FD75810B02005DD8
:0A0006003F065B4F666D7D077F6FBC
:08014D000308060606010B0081
:10010B00D3EF9400EE940040147D6E7C00ED1D70D7
:0D011B00011CED4C70F7EF1F70E61E80E335
:0101280022B4
:1000A20075A0FFE50890000693F580C2A07F017E4F
:1000B2000012010B75A0FFE50993F580C2A17F0133
:1000C2007E0012010B75A0FFE50A93F580C2A27FA4
:0600D200017E0002010B9B
:03000300020129CE
:10012900C0E0C0D0050BE50BC394034003750B0079
:05013900D0D0D0E0323F
:030013000200D810
:1000D800C0E0C0D075D000C000E508B4010BE50948
:1000E800B40906E50A640360137408250BF806745E
:1000F80008250BF8E6C3940A40027600D000D0D059
:03010800D0E03212
:0F013E00D288D28AD2A8D2AAD2AF1200A280FB56
:1000220002013EE493A3F8E493A34003F68001F2B5
:1000320008DFF48029E493A3F85407240CC8C333DF
:10004200C4540F4420C8834004F456800146F6DFAE
:10005200E4800B010204081020408090014DE47EF0
:10006200019360BCA3FF543F30E509541FFEE493A3
:10007200A360010ECF54C025E060A840B8E493A36A
:10008200FAE493A3F8E493A3C8C582C8CAC583CA95
:10009200F0A3C8C582C8CAC583CADFE9DEE780BE4D
:0101550000A9
:00000001FF
