:0300000002019169
:0C019100787FE4F6D8FD75812002000E96
:10017400FC60DAF266B6BEE0FEF6EE3E9C7A9E8E37
:0D018400D295D296D297C292C293C2942215
:10014F005389F0438901758CD8758AF0D2A9D2AF43
:03015F00D28C221D
:03000B000200B43C
:1000B400C0E0C0D0758CD8758AF0050FE50FC394E5
:0E00C400644006750F00750D01D0D0D0E032FB
:080003008F993099FDC299228A
:1000EE00AE07EE75F00A8490017493FF120003EED2
:0B00FE0075F00A84E5F093FF02000398
:09019D00A2034003D38001C32238
:10007200A295920312019D9200A296920312019DF3
:100082009201A297920312019D920230000920016F
:10009200062002037F01223001092000062002030C
:1000A2007F02223002092000062001037F03227F03
:0100B200004D
:0100B300222A
:10010900C292C293C2948F0AE50AB40103D2922221
:0B011900E50AB40203D29322D2942224
:0601AF00E4F50FF50D223E
:0901A600BF02037F05227F0A223B
:10016200AE071201091201A68F0E1201AFAF0E02E5
:0201720000EE9D
:1000D200E50AB40105750C038008E50AB403077547
:0C00E2000C017F028002AF0C12016222B0
:10013A00850A09850C0B8F08C28C1201AF120109BE
:05014A00AF0E0200EE03
:10012400AF09120109850B0CE4F5081201AFAF0EFB
:060134001200EED28C2245
:10000E00120184750A01750C03750901750B03E461
:10001E00F508F50FF50D7F0112016212014F120066
:10002E0072AD07ED601CE508700512013A80EFED28
:10003E00650860EA8D08AF05120109AF0E1200EED9
:10004E0080DCE508600512012480D3E50D60CFE465
:10005E00F50DE50E70051200D280C3150EAF0E120F
:04006E0000EE80BA66
:00000001FF
