:0300000002009566
:0C009500787FE4F6D8FD758107020003B7
:10006600E4FDFCC3ED9FEC9E5015E4FBFA0BBB00D0
:0F007600010AEB646E4A70F50DBD00010C80E4C9
:010085002258
:0F008600438920758DFD758BFDD28E75985022A4
:0800A1008F993099FDC29922EC
:10000300120086D29020912B7F0A7E001200662078
:1000130091217FAA1200A17F0A12006630980FA9CE
:1000230099C298B95504C2908006D2908002D290AA
:100033003091FD2092CF7F0A7E001200662092C588
:100043007FBB1200A17F0A12006630980FA999C2E4
:1000530098B95504C2908006D2908002D290209223
:03006300A480FB7B
:00000001FF
