:03000000020F21CB
:0C0F2100787FE4F6D8FD758179020F6836
:020E8F008F22B0
:100E9100E522F47003020F20AF221210CB5008AFED
:100EA100221212BF021272E522B40C030212B7AF72
:100EB100221211FE5029E52224FD601B24FC601240
:100EC10024FC600924FC7057752301800D752302F1
:100ED10080087523038003752304AF230210FDE509
:100EE10022B40E03020003E522B4100302118CE5C3
:100EF10022B411030211ABE522B41203020FADE5D6
:100F010022B413030212C6E522B414030212CBE584
:0F0F110022B415030212D0E522B416031212D532
:010F200022AE
:10124200121054121215120A4B8F21120E8F80F6B1
:0B11CA008F807F051211D5D2917F05A8
:0F11D500EFD394004009E4FE0EBE6EFC1F80F1C4
:0111E40022E8
:0812A700C2901211CAC291228B
:0812AF00D2901211CAC2912273
:10105400D291C2927F381212A77F051211D57F3820
:101064001212A77F051211D57F0C1212A77F01124D
:1010740011D57F061212A77F011211D57F8012129B
:10108400A77F011211D57F011212A77F010211D58A
:0A1281007F011212A77F010211D5B0
:10125200EF7005ED24808003ED24C0FF1212A72257
:0A128B00AC03121252AF040212AFBE
:10122C00121252120925FF600C1212AF740129F927
:06123C00E43AFA80EE2204
:10116C000708090004050600010203000000000046
:10117C00070809FF040506FA010203FD00000DFB38
:02129E00C1008D
:100A4B007523FFE5B020E0127F191211D5E5B02018
:100A5B00E008E5B030E0FB7F1022E5B020E1127F2B
:100A6B00191211D5E5B020E108E5B030E1FB7F119B
:100A7B0022E5B020E2127F191211D5E5B020E20871
:100A8B00E5B030E2FB7F1222E5B020E3127F1912B2
:100A9B0011D5E5B020E308E5B030E3FB7F1322E589
:100AAB00B020E4127F191211D5E5B020E408E5B0AF
:100ABB0030E4FB7F1422E5B020E5127F191211D52B
:100ACB00E5B020E508E5B030E5FB7F1522E5B02069
:100ADB00E6127F191211D5E5B020E608E5B030E635
:100AEB00FB7F162230001275A0F0E5A0B4F0077F53
:100AFB001E1211D5C2007FFF2275A0FEE5A064FE79
:100B0B0060337F191211D5E5A064FE6028E5A0546F
:100B1B00F0F5222490601B24C0601224E0600924AD
:100B2B00F07012E4F523800D752301800875230204
:100B3B008003752303E523F4703C75A0FDE5A064E9
:100B4B00FD60337F191211D5E5A064FD6028E5A087
:100B5B0054F0F5222490601B24C0601224E060093D
:100B6B0024F07012752304800D75230580087523FE
:100B7B00068003752307E523F4703C75A0FBE5A005
:100B8B0064FB60337F191211D5E5A064FB6028E587
:100B9B00A054F0F5222490601B24C0601224E06066
:100BAB000924F07012752308800D752309800875D0
:100BBB00230A800375230BE523F4703C75A0F7E53E
:100BCB00A064F760337F191211D5E5A064F7602894
:100BDB00E5A054F0F5222490601B24C0601224E0A1
:100BEB00600924F0701275230C800D75230D80089D
:100BFB0075230E800375230FE523F46002D200AF3B
:010C0B0023C5
:010C0C0022C5
:0712BF00EF90116C93FF2278
:09129500EF90117C932430FF223C
:1010CB00EF640D6028EF64086023EF6409601EEF86
:1010DB00640A6019EF64046014EF6405600FEF6439
:1010EB0006600AEF600764016003BF0203D380014F
:0210FB00C3220E
:1011FE00EF640F600DEF640B6008EF64076003BFD0
:07120E000303D38001C3229A
:0612A000041B0000000029
:10121500E4F518F519F51AFF74082FF8E4F60FBF71
:0712250010F67F0F0212A773
:0812B7007F011212A7021215BB
:101124007F801212A7E4F526E526C39518500E74A5
:10113400082526F8E6FF1212AF052680EBE51924F0
:0511440080FF0212A76C
:100D5B00E5186004E519701EEFC394304007EFD31C
:100D6B009439500122BF2D02D322BF2802D322BFB8
:100D7B004102D322C32274072519F8E6FE642B60C7
:100D8B000FEE642D600AEE642A6005EE642F703658
:100D9B00EF642B6017EF642D6012EF642A600DEF88
:100DAB00642F6008EF642E6003BF2902C322EFC3D8
:100DBB0094304006EFD394394008EF64286003BFAA
:100DCB004102D322C322EEC394304010EED39439A8
:100DDB00500AEF64416003BF2802C322EE642870FF
:100DEB001BEF642B6012EF642A600DEF642F600819
:100DFB00EF642E6003BF2902C322D322EE64297055
:100E0B001DEFC394304006EFD39439400DEF642EA1
:100E1B006008EF64416003BF2802C322D322EE6453
:100E2B0041701BEF642B6012EF642D600DEF642A91
:100E3B006008EF642F6003BF2902D322C322EF6443
:100E4B002E703FFFE51914FEEEC394FF502D74086E
:100E5B002EF8E6FD642B6023ED642D601EED642AF5
:100E6B006019ED642F6014ED6428600FED64296048
:100E7B000AEDB42E030F80031E80CDEFD3940040F8
:030E8B000122D36E
:010E8E002241
:021094008F25A6
:10109600E51AB401031212B7AF25120D5B5025AF46
:1010A60018EFD39519400F74072FF8E6FE74082F32
:1010B600F8A6061F80EB74082519F8A6250518055D
:0410C60019121124C6
:0110CA002203
:0F127200EF2430FF121094E51A6003E4F51A22FE
:0512C6007F2E021094D0
:0512CB007F28021094D1
:0512D0007F29021094CB
:0512D5007F41021094AE
:1010FD00EF24FE600F146011146013240370177534
:10110D00242B800D75242D800875242A80037524C9
:06111D002FAF2412109414
:0111230022A9
:10118C00E51AB40103021262E519D3940040041568
:0F119C00198003851819E5192480FF1212A72264
:1011AB00E51AB40103021262E519C3951850040540
:0F11BB00198003E4F519E5192480FF1212A72209
:100FAD00E51AB40103021262E5196056E51914F54C
:100FBD0024E51814FFE524C39F501274092524F865
:100FCD00E6FF74082524F8A607052480E474072598
:100FDD0018F87620151815197F011212A77F8012A7
:100FED0012A7E4F524E524C39518500E74082524A2
:100FFD00F8E6FF1212AF052480EBE5192480FF12ED
:02100D0012A728
:01100F0022BE
:101262007F011212A7E4F51A1211247F0F0212A7AE
:1011E500EF642B6003BF2D037F0122EF642A6003A8
:0911F500BF2F037F02227F0022BC
:10000300751A017F0C1212A7E4F550F54EE54EC3A5
:10001300951850207408254EF8E6FFB428020550C1
:10002300EFB429021550E550C3940050030204A70E
:10003300054E80D9E55060030204A7E4F54CF54D65
:10004300F554F553F552F551F5617558CD7557CC07
:100053007556CC75553DF563F54EE54EC395184081
:10006300030204297408254EF8E6F54FB4411DAF89
:100073001EAE1DAD1CAC1BAB4C054CEB25E025E0C7
:100083002424F8120958E4F563020424E54FC394C9
:1000930030500302013BE54FD39439400302013B47
:1000A300E561703CE54F24D0FDE434FFFCE4120825
:1000B3006BC004C005C006C007E4FFFE7D207C4181
:1000C300AB54AA53A952A851120642D003D002D06E
:1000D30001D0001205518F548E538D528C51806C78
:1000E300AB54AA53A952A851C000C001C002C00317
:1000F300E54F24D0FDE434FFFCE412086BAB58AAAF
:1001030057A956A855120642D003D002D001D000F9
:100113001205518F548E538D528C51AF58AE57AD3B
:1001230056AC557BCD7ACC79CC783D1206428F58AC
:100133008E578D568C558014E54FB42E157561017D
:100143007558CD7557CC7556CC75553D7563010201
:100153000424E54FB4280302041AE54F642960031D
:10016300020298E5636024AF54AE53AD52AC51AB79
:100173004C054CEB25E025E02424F8120958E4F55E
:1001830054F553F552F551F561F563E54DD39400FC
:1001930050030202897443254DF8E6642870030274
:1001A3000289154CE54C25E025E02424F812094C7E
:1001B3008F608E5F8D5E8C5D154CE54C25E025E0F0
:1001C3002424F812094C8F5C8E5B8D5A8C59154D83
:1001D3007444254DF8E6F562B42F2F7F177EB77D63
:1001E300D17C38AB60AA5FA95EA85D1207E8501AFC
:1001F3007F177EB77DD17CB8AB60AA5FA95EA85D8F
:100203001207E8600540030204A7E562B42B15AFAB
:1002130060AE5FAD5EAC5DAB5CAA5BA95AA8591238
:1002230005518050E562B42D15AB60AA5FA95EA8A5
:100233005DAF5CAE5BAD5AAC5912054D8036E562DD
:10024300B42A15AF60AE5FAD5EAC5DAB5CAA5BA9D3
:100253005AA859120642801CE562642F600302010A
:100263008EAB60AA5FA95EA85DAF5CAE5BAD5AAC16
:100273005912074BAB4C054CEB25E025E02424F841
:1002830012095802018EE54DD39400500302042451
:10029300154D020424E54F642B6015E54F642D6072
:1002A3000FE54F642A6009E54F642F6003020424BD
:1002B300E54F642D702BE54E60072407F8E6B4285C
:1002C30020AF4C054CEF25E025E02424F812096407
:1002D30000000000AF4D054D74442FF8762D020445
:1002E30024E5636024AF54AE53AD52AC51AB4C051F
:1002F3004CEB25E025E02424F8120958E4F554F5E5
:1003030053F552F551F561F563E54DD39400500370
:1003130002041A7443254DF8E6FF642870030204AF
:100323001A1211E5AE07AF4F1211E5EEC39F50034A
:1003330002041A154CE54C25E025E02424F81209A3
:100343004C8F608E5F8D5E8C5D154CE54C25E025F2
:10035300E02424F812094C8F5C8E5B8D5A8C59155E
:100363004D7444254DF8E6F562B42F2F7F177EB701
:100373007DD17C38AB60AA5FA95EA85D1207E85007
:100383001A7F177EB77DD17CB8AB60AA5FA95EA840
:100393005D1207E8600540030204A7E562B42B156C
:1003A300AF60AE5FAD5EAC5DAB5CAA5BA95AA8590A
:1003B3001205518050E562B42D15AB60AA5FA95EAA
:1003C300A85DAF5CAE5BAD5AAC5912054D8036E506
:1003D30062B42A15AF60AE5FAD5EAC5DAB5CAA5B89
:1003E300A95AA859120642801CE562642F600302D1
:1003F300030CAB60AA5FA95EA85DAF5CAE5BAD5AB0
:10040300AC5912074BAB4C054CEB25E025E02424FB
:10041300F812095802030CAF4D054D74442FF8A68A
:100423004F054E02005DE563600BAF54AE53AD5212
:10043300AC51020514E54DD3940050030205261573
:100443004CE54C25E025E02424F812094C8F608EFE
:100453005F8D5E8C5D154CE54C25E025E02424F88A
:1004630012094C8F5C8E5B8D5A8C59154D74442543
:100473004DF8E6F562B42F2F7F177EB77DD17C3818
:10048300AB60AA5FA95EA85D1207E8501A7F177ECA
:10049300B77DD17CB8AB60AA5FA95EA85D1207E8FF
:1004A30060054003021149E562B42B15AF60AE5FEE
:1004B300AD5EAC5DAB5CAA5BA95AA859120551802D
:1004C30050E562B42D15AB60AA5FA95EA85DAF5C71
:1004D300AE5BAD5AAC5912054D8036E562B42A15B0
:1004E300AF60AE5FAD5EAC5DAB5CAA5BA95AA859C9
:1004F300120642801CE562642F6003020438AB607D
:10050300AA5FA95EA85DAF5CAE5BAD5AAC5912079A
:100513004BAB4C054CEB25E025E02424F81209589D
:1005230002043885276785266685256585246485C5
:10053300671E85661D85651C85641BAF67AE66AD4A
:0605430065AC64120C0D12
:01054900228F
:080C0D008F6B8E6A8D698C6803
:100C1500E4F579FFFEFDFCAB6BAA6AA969A8681229
:100C250007E85016757901AF6BAE6AAD69AC68120D
:100C350008558F6B8E6A8D698C68AF6BAE6AAD692E
:100C4500AC687B177AB7795178381205518F6B8E5E
:100C55006A8D698C681208A48F6F8E6E8D6D8C6C91
:100C6500EC120866A804A905AA06AB07AF6BAE6A25
:100C7500AD69AC6812054D8F738E728D718C707F66
:100C8500CF1212A77F041212A77F007E407D1C7C25
:100C950046AB73AA72A971A8701206421208A48FF6
:100CA500778E768D758C74E4F578E47B0AFAF9F81D
:100CB500AF77AE76AD75AC74121010EB2430FF1221
:100CC50012AFAF77AE76AD75AC74E47B0AFAF9F87E
:100CD5001210108F778E768D758C740578E578C334
:100CE500940440C67F2E1212AF856F77856E768588
:100CF5006D75856C74AF77AE76AD75AC74EC4D4E95
:100D05004F70077F301212AF8039AF77AE76AD7571
:100D1500AC74EC4D4E4F602BE47B0AFAF9F81210D7
:100D250010EB2430FF1212AFAF77AE76AD75AC7411
:100D3500E47B0AFAF9F81210108F778E768D758C90
:100D45007480C7E57960057F2D1212AF7F3D1212C1
:060D5500AF7F060212A7A9
:101149007FC01212A77F451212AF7F521212AF7FD2
:10115900521212AF7F4F1212AF7F521212AF7F217C
:031169000212AFC0
:10054A00020910E86480F8E933E83360110460F0C6
:10055A00ED33EC337009E8FCE9FDEAFEEBFF220417
:10056A0060DED3EB9FEA9EE99DE8C2E78CF0C2F712
:10057A0095F0400CE8CCF8E9CDF9EACEFAEBCFFBDE
:10058A001208DB85D0F05804700320D5B3E8047054
:10059A00075002B2D502091A92D5EC0460F7E4CCEE
:1005AA00C0E0C398F8603B94186008400DD0E0FBA7
:1005BA000208F2E4FBFAC9FC8028E830E406E4C940
:1005CA00FBE4CAFCE830E305E4C9CACBFCE85407FB
:1005DA006010F8C3E913F9EA13FAEB13FBEC13FC06
:1005EA00D8F130F52FC3E49CFCEF9BFFEE9AFEEDA9
:1005FA0099FDD0E0FBEF4E4D4C701222DB0302094D
:10060A0017EC2CFCEF33FFEE33FEED33FDED30E754
:10061A00EB0208F2EF2BFFEE3AFEED39FDD0E0FBDC
:10062A0050130BBB000302091AED13FDEE13FEEF84
:08063A0013FFEC13FC0208F2AF
:10064200EC4D6011E8497017ED33EC3304600DE4B2
:10065200FCFFFEFD22E933E8330470F802091012B0
:1006620008DB58046009E4CC2481500628500902B2
:10067200091A284003020917C0E0EB4A7044B98006
:1006820006D0E0FB020906EF4E701CBD8008EBFFAE
:10069200EAFEE9FD80EBE98DF0A4FEE5F002072B0E
:1006A200E9CDF9EAFEEBFFEF89F0A4FCE5F0CE8993
:1006B200F0A42EFFE435F0CD89F0A42DFEE435F050
:1006C2008067EF4E7005BD80D780C3EF8BF0A4AC7E
:1006D200F0EE8BF0A42CFCE435F0F8EF8AF0A42CB9
:1006E200E5F038FCE433CB8DF0A42CFCE5F03BF8CC
:1006F200EE8AF0A42CFCE5F038F8E433CF89F0A4BC
:100702002CFCE5F038CF3400CE89F0A42FFFE5F0C1
:100712003EFEE433C98DF0A42EFEE5F039CD8AF019
:10072200A42FFFE5F03EFEE43DFD33D0E0FB500791
:100732000BBB000F02091AEC2CFCEF33FFEE33FE69
:06074200ED33FD0208F298
:1007480002091AEC5D046005E859047003020910F7
:100758001208DB580460F6EC4860F2EC7004FDFE09
:10076800FF22C860DB2481C85009C3986002500684
:100778000209179850CAF582E9294B4A7005AB82DD
:1007880002090675F0007C1A7880C3EF9BEE9AED9B
:1007980099400DC3EF9BFFEE9AFEED99FDE842F0FC
:1007A800DC23ACF0D0E0FFD0E0FED0E0FDAB82204F
:1007B800E7101BEB60BAEC2CFCEF33FFEE33FEEDD9
:1007C80033FD0208F2E803F830E705C0F075F000E1
:1007D800EF2FFFEE33FEED33FD40B830E7C280AABD
:1007E80074F8CC6480CCC86480C8F582046043C3C4
:1007F800EB9FF5F0EA9E42F0E99D42F0E89C45F057
:1008080060305018E5825FFFE582F42B5582FB507B
:10081800210ABA001D09B90019088016E5825BFB98
:10082800E582F42F5582FF50090EBE00050DBD006C
:10083800010CC3EB9FF5F0EA9E42F0E99D42F0E817
:0D0848009C45F06007CC4820E701B3EC228E
:10085500ED33EC33600A047003BD8004ECB2E7FCB1
:010865002270
:1008660075F020800E75F010800575F0087D007E0D
:10087600007F003392D530D50312093EEC33401089
:10088600EF33FFEE33FEED33FDEC33FCD5F0ED2216
:0E089600E5F0247EA2D513CC92E7CDCEFF2252
:1008A400EDD2E7CD33EC3392D524814006E4FFFE4C
:1008B400FDFC22FCE4CFCECDCC24E0501174FF80AB
:1008C400EDC3CC13CCCD13CDCE13CECF13CF047048
:0708D400F030D5DE02093E01
:1008DB00E9D2E7C933E833F892D5EDD2E7CD33EC63
:0708EB0033FC5002B2D522DC
:1008F200EC30E7100FBF000C0EBE00080DBD000467
:100902000BEB6014A2D5EB13FCED92E7FD2274FF12
:10091200FCFDFEFF22E480F8A2D574FF13FC7D806B
:03092200E480EF7F
:100F2D00021242E493A3F8E493A34003F68001F286
:100F3D0008DFF48029E493A3F85407240CC8C333C5
:100F4D00C4540F4420C8834004F456800146F6DF94
:100F5D00E4800B010204081020408090129EE47E74
:100F6D00019360BCA3FF543F30E509541FFEE49389
:100F7D00A360010ECF54C025E060A840B8E493A350
:100F8D00FAE493A3F8E493A3C8C582C8CAC583CA7B
:100F9D00F0A3C8C582C8CAC583CADFE9DEE780BE33
:0112A6000047
:10092500BB010689828A83E0225002E722BBFE02D0
:09093500E32289828A83E4932203
:10101000C2D5E830E70FB2D5E4C39BFBE49AFAE40B
:1010200099F9E498F8EC30E717B2D5121046120996
:10103000B9E4C39BFBE49AFAE499F9E498F88003D5
:101040001209B930D50DE4C39FFFE49EFEE49DFD77
:04105000E49CFC22FE
:0E093E00C3E49FFFE49EFEE49DFDE49CFC22CA
:0C094C00E6FC08E6FD08E6FE08E6FF22D7
:0C095800ECF608EDF608EEF608EFF622CB
:10096400D083D082E493F608740193F6087402935A
:09097400F608740393F674047391
:10097D0075F008758200EF2FFFEE33FECD33CDCC31
:10098D0033CCC58233C5829BED9AEC99E5829840B4
:10099D000CF582EE9BFEED9AFDEC99FC0FD5F0D691
:1009AD00E4CEFBE4CDFAE4CCF9A88222B800C1B9BB
:1009BD000059BA002DEC8BF084CFCECDFCE5F0CBF9
:1009CD00F97818EF2FFFEE33FEED33FDEC33FCEB32
:1009DD0033FB10D703994004EB99FB0FD8E5E4F9ED
:1009ED00FA227818EF2FFFEE33FEED33FDEC33FCDA
:1009FD00C933C910D7059BE99A4007EC9BFCE99ACE
:100A0D00F90FD8E0E4C9FAE4CCFB2275F010EF2F12
:100A1D00FFEE33FEED33FDCC33CCC833C810D70712
:100A2D009BEC9AE899400AED9BFDEC9AFCE899F84D
:0E0A3D000FD5F0DAE4CDFBE4CCFAE4C8F922E0
:00000001FF
